:10000000803118280000203085000430840000086A
:10001000031917280A30F800F701F70B0D28F80B21
:100020000C285F30F700F70B1328800B0A28080014
:10003000510192018F0191010530930010308D0024
:100040007E01B801C301CE01D901E4015301910140
:10005000920193019001950196019701940140014D
:10006000A101A201A30112111711C830A40003209D
:100070000130A107A207A3072108023C031D442861
:10008000921002309706A1012208043C031D4C285F
:10009000931380309806A2012308083C031D5428BE
:1000A000131340309806A30112111715C830A4008D
:1000B00003200130A107A207A3072108023C031D6A
:1000C0006528921002309706A1012208043C031D06
:1000D0006D28931380309806A2012308083C031D65
:0E00E0007528131340309806A30133286300DF
:020000040001F9
:0A000E009C3FFD3F9F3FFF1FFF3F97
:00000001FF
;PIC16F18877
;CRC=BEDE  CREATED="27-Feb-18 11:55"
